S01C000066696E616C5F70726F6A6563745F6D61737465722E73726563BD
S11300000C942A000C9447000C9447000C9447006D
S11300100C9447000C9447000C9447000C94470040
S11300200C9447000C9447000C9447000C94470030
S11300300C9447000C9447000C9447000C94470020
S11300400C9447000C9447000C9447000C94470010
S11300500C94470011241FBECFE5D8E0DEBFCDBF0E
S113006010E0A0E6B0E0E0E5F3E002C005900D92F8
S1130070A838B107D9F720E0A8E8B0E001C01D9284
S1130080A938B207E1F70E941C010C94A6010C9454
S1130090000088B3816088BB089588B38E7F88BBD5
S11300A00895CF93C82F88B38B7F88BB88B38D7F87
S11300B088BBCBBB0E9449008FE99FE00197F1F711
S11300C000C000000E944D0080918800882379F0D0
S11300D020E1C29FC00111248BBB0E9449008FE91B
S11300E09FE00197F1F700C000000E944D008FE3EC
S11300F09FE10197F1F700C00000CF910895CF93DD
S1130100C82F88B38B7F88BB88B3826088BBCBBB86
S11301100E9449008FE99FE00197F1F700C00000B9
S11301200E944D0020E1C29FC00111248BBB0E949C
S113013049008FE99FE00197F1F700C000000E9499
S11301404D008FE39FE10197F1F700C00000CF91CC
S113015008950F931F93CF93DF938C01C0E0D0E0F9
S113016003C00E947F002196F801EC0FFD1F8081DF
S11301708111F7CFDF91CF911F910F9108950F93C4
S11301801F93CF93DF938C01D62FC42F86E00E9458
S11301905100D13019F0D23051F011C08C2F8F7032
S11301A080680E945100C8010E94A90008C08C2FD9
S11301B08F70806C0E945100C8010E94A900DF91D9
S11301C0CF911F910F9108958FEF8ABB87BB1BBA04
S11301D02FEF89EF90E0215080409040E1F700C07C
S11301E0000080E20E94510080E20E94510080E8F9
S11301F00E9451008FE99FE00197F1F700C00000D1
S113020080E00E94510080EC0E9451008FE99FE041
S11302100197F1F700C0000080E00E94510080E1E6
S11302200E9451008FE39FE10197F1F700C00000A5
S113023081E08093880008950E9481010E94E40077
S113024084B38C6084BB80E00E94620188B38F7E9B
S113025088BB8FE39FE10197F1F700C000008AEAB1
S11302600E947C01863438F195B384E0892785BBEC
S113027045E061E080E690E00E94BF0040E062E07B
S113028087E690E00E94BF009FEF21EE84E091504A
S113029020408040E1F700C000000E948F018133BC
S11302A051F485B3886085BB89E790E00E9493018F
S11302B081E00E94510045E061E080E890E00E9406
S11302C0BF00C7CF882319F0813069F0089587B340
S11302D0806B87BB87B38F7B87BB88B3806188BB08
S11302E080E58DB9089587B3806487BB87B38F7425
S11302F087BB80E48DB908958FB9779BFECF8FB10A
S113030008958AB188618AB980B5866880BD87E618
S113031089B910BC08955D9BFECF8CB908955F9B8D
S1130320FECF8CB108950F931F93CF938C01C0E03F
S113033003C00E948B01CF5FF801EC0FF11D808197
S11303408111F7CFCF911F910F910895F894FFCFAA
S11303504649524521210053656E64203120666F61
S1130360722042757A7A657200464952450A0D0038
S10B03704E6F726D616C000018
S9030000FC
