:100000000C942A000C9447000C9447000C94470071
:100010000C9447000C9447000C9447000C94470044
:100020000C9447000C9447000C9447000C94470034
:100030000C9447000C9447000C9447000C94470024
:100040000C9447000C9447000C9447000C94470014
:100050000C94470011241FBECFE5D8E0DEBFCDBF12
:1000600010E0A0E6B0E0E6E0F4E002C005900D92FA
:10007000AE36B107D9F720E0AEE6B0E001C01D9280
:10008000A037B207E1F70E9447010C9401020C94DB
:10009000000080EC87B987E886B9089527B197B149
:1000A000207E8F71822B982B97B986B1806486B998
:1000B000349BFECF86B1806186B924B185B190E0D2
:1000C000982F8827822B089588B3816088BB089574
:1000D00088B38E7F88BB0895CF93C82F88B38B7F5A
:1000E00088BB88B38D7F88BBCBBB0E9464008FE93F
:1000F0009FE00197F1F700C000000E946800809126
:100100006E00882379F020E1C29FC00111248BBBCF
:100110000E9464008FE99FE00197F1F700C00000A2
:100120000E9468008FE39FE10197F1F700C0000093
:10013000CF910895CF93C82F88B38B7F88BB88B3A6
:10014000826088BBCBBB0E9464008FE99FE001976F
:10015000F1F700C000000E94680020E1C29FC001CA
:1001600011248BBB0E9464008FE99FE00197F1F797
:1001700000C000000E9468008FE39FE10197F1F743
:1001800000C00000CF9108950F931F93CF93DF938A
:100190008C01C0E0D0E003C00E949A002196F801D3
:1001A000EC0FFD1F80818111F7CFDF91CF911F915F
:1001B0000F9108950F931F93CF93DF938C01D62F48
:1001C000C42F86E00E946C00D13019F0D23051F07B
:1001D00011C08C2F8F7080680E946C00C8010E9433
:1001E000C40008C08C2F8F70806C0E946C00C80106
:1001F0000E94C400DF91CF911F910F9108958FEF5E
:100200008ABB87BB1BBA2FEF89EF90E0215080405B
:100210009040E1F700C0000080E20E946C0080E2A4
:100220000E946C0080E80E946C008FE99FE00197BB
:10023000F1F700C0000080E00E946C0080EC0E949A
:100240006C008FE99FE00197F1F700C0000080E0AB
:100250000E946C0080E10E946C008FE39FE1019797
:10026000F1F700C0000081E080936E0008952AEF4E
:10027000AC01249FC001259F900D112464EB70E018
:100280000E94D90167507F4F7BBD6ABD08950E94CF
:1002900049000E94FF0084B38C6984BB81B38062F3
:1002A00081BB87E893E197BD86BD8FB582688FBD1E
:1002B0008EB58B618EBD82E390E09BBD8ABD83B716
:1002C0008B6683BF8FEF8CBF81E00E94BD0181E010
:1002D0000E944E00EC01D695C795D695C79581E052
:1002E00080936F0031C081E00E944E00EC01D695F2
:1002F000C795D695C79545E061E080E690E00E94FD
:10030000DA0080916F00813089F48C2F0E94D40133
:100310008A3A61F485B3805885BB2FEF81EE94E073
:10032000215080409040E1F700C0000095B384E088
:10033000892785BB8AE590E00E94370185B38061FB
:1003400085BB85B3877F85BBC634D10560F6109227
:100350006F0045E061E087E690E00E94DA0080E00F
:1003600090E00E94370185B3877F85BB85B38F7E80
:1003700085BB85B38B7F85BBAACF882319F08130DD
:1003800051F0089587B3806B87BB87B38F7B87BBA2
:1003900080E58DB9089587B3806487BB87B38F7478
:1003A00087BB80E48DB908958FB9779BFECF8FB15D
:1003B000089597FB072E16F4009407D077FD09D017
:1003C0000E94ED0107FC05D03EF4909581959F4F6A
:1003D0000895709561957F4F0895AA1BBB1B51E14D
:1003E00007C0AA1FBB1FA617B70710F0A61BB70BA5
:1003F000881F991F5A95A9F780959095BC01CD014A
:060400000895F894FFCFFF
:0E040600464952452121004E6F726D616C0017
:00000001FF
